{
  "_format": "hh-sol-artifact-1",
  "contractName": "Raffle",
  "sourceName": "contracts/Raffle.sol",
  "abi": [
    {
      "inputs": [
        {
          "internalType": "address",
          "name": "vrfCoordinatorV2",
          "type": "address"
        },
        {
          "internalType": "uint256",
          "name": "entranceFee",
          "type": "uint256"
        },
        {
          "internalType": "bytes32",
          "name": "gasLane",
          "type": "bytes32"
        },
        {
          "internalType": "uint64",
          "name": "subscriptionId",
          "type": "uint64"
        },
        {
          "internalType": "uint32",
          "name": "callbackGasLimit",
          "type": "uint32"
        },
        {
          "internalType": "uint256",
          "name": "interval",
          "type": "uint256"
        }
      ],
      "stateMutability": "nonpayable",
      "type": "constructor"
    },
    {
      "inputs": [
        {
          "internalType": "address",
          "name": "have",
          "type": "address"
        },
        {
          "internalType": "address",
          "name": "want",
          "type": "address"
        }
      ],
      "name": "OnlyCoordinatorCanFulfill",
      "type": "error"
    },
    {
      "inputs": [],
      "name": "Raffle__NotEnoughETHEntered",
      "type": "error"
    },
    {
      "inputs": [],
      "name": "Raffle__NotOpen",
      "type": "error"
    },
    {
      "inputs": [],
      "name": "Raffle__TransferFailed",
      "type": "error"
    },
    {
      "inputs": [
        {
          "internalType": "uint256",
          "name": "currentBalance",
          "type": "uint256"
        },
        {
          "internalType": "uint256",
          "name": "numPlayers",
          "type": "uint256"
        },
        {
          "internalType": "uint256",
          "name": "raffleState",
          "type": "uint256"
        }
      ],
      "name": "Raffle__UpkeepNotNeeded",
      "type": "error"
    },
    {
      "anonymous": false,
      "inputs": [
        {
          "indexed": true,
          "internalType": "address",
          "name": "player",
          "type": "address"
        }
      ],
      "name": "RaffleEnter",
      "type": "event"
    },
    {
      "anonymous": false,
      "inputs": [
        {
          "indexed": true,
          "internalType": "uint256",
          "name": "requestId",
          "type": "uint256"
        }
      ],
      "name": "RequestedRaffleWinner",
      "type": "event"
    },
    {
      "anonymous": false,
      "inputs": [
        {
          "indexed": true,
          "internalType": "address",
          "name": "winner",
          "type": "address"
        }
      ],
      "name": "WinnerPicked",
      "type": "event"
    },
    {
      "inputs": [
        {
          "internalType": "bytes",
          "name": "",
          "type": "bytes"
        }
      ],
      "name": "checkUpkeep",
      "outputs": [
        {
          "internalType": "bool",
          "name": "upkeepNeeded",
          "type": "bool"
        },
        {
          "internalType": "bytes",
          "name": "",
          "type": "bytes"
        }
      ],
      "stateMutability": "view",
      "type": "function"
    },
    {
      "inputs": [],
      "name": "enterRaffle",
      "outputs": [],
      "stateMutability": "payable",
      "type": "function"
    },
    {
      "inputs": [],
      "name": "getEntranceFee",
      "outputs": [
        {
          "internalType": "uint256",
          "name": "",
          "type": "uint256"
        }
      ],
      "stateMutability": "view",
      "type": "function"
    },
    {
      "inputs": [],
      "name": "getInterval",
      "outputs": [
        {
          "internalType": "uint256",
          "name": "",
          "type": "uint256"
        }
      ],
      "stateMutability": "view",
      "type": "function"
    },
    {
      "inputs": [],
      "name": "getLatestTimesTamp",
      "outputs": [
        {
          "internalType": "uint256",
          "name": "",
          "type": "uint256"
        }
      ],
      "stateMutability": "view",
      "type": "function"
    },
    {
      "inputs": [],
      "name": "getNumberOfPlayers",
      "outputs": [
        {
          "internalType": "uint256",
          "name": "",
          "type": "uint256"
        }
      ],
      "stateMutability": "view",
      "type": "function"
    },
    {
      "inputs": [
        {
          "internalType": "uint256",
          "name": "index",
          "type": "uint256"
        }
      ],
      "name": "getPlayer",
      "outputs": [
        {
          "internalType": "address",
          "name": "",
          "type": "address"
        }
      ],
      "stateMutability": "view",
      "type": "function"
    },
    {
      "inputs": [],
      "name": "getRaffleState",
      "outputs": [
        {
          "internalType": "enum Raffle.RaffleState",
          "name": "",
          "type": "uint8"
        }
      ],
      "stateMutability": "view",
      "type": "function"
    },
    {
      "inputs": [],
      "name": "getRecentWinner",
      "outputs": [
        {
          "internalType": "address",
          "name": "",
          "type": "address"
        }
      ],
      "stateMutability": "view",
      "type": "function"
    },
    {
      "inputs": [],
      "name": "getRequestConfirmations",
      "outputs": [
        {
          "internalType": "uint256",
          "name": "",
          "type": "uint256"
        }
      ],
      "stateMutability": "pure",
      "type": "function"
    },
    {
      "inputs": [
        {
          "internalType": "bytes",
          "name": "",
          "type": "bytes"
        }
      ],
      "name": "performUpkeep",
      "outputs": [],
      "stateMutability": "nonpayable",
      "type": "function"
    },
    {
      "inputs": [
        {
          "internalType": "uint256",
          "name": "requestId",
          "type": "uint256"
        },
        {
          "internalType": "uint256[]",
          "name": "randomWords",
          "type": "uint256[]"
        }
      ],
      "name": "rawFulfillRandomWords",
      "outputs": [],
      "stateMutability": "nonpayable",
      "type": "function"
    }
  ],
  "bytecode": "0x6101606040523480156200001257600080fd5b5060405162001822380380620018228339818101604052810190620000389190620001ad565b858073ffffffffffffffffffffffffffffffffffffffff1660808173ffffffffffffffffffffffffffffffffffffffff1660601b81525050508460a081815250508573ffffffffffffffffffffffffffffffffffffffff1660c08173ffffffffffffffffffffffffffffffffffffffff1660601b815250508360e081815250508267ffffffffffffffff166101008167ffffffffffffffff1660c01b815250508163ffffffff166101208163ffffffff1660e01b815250506000600160146101000a81548160ff02191690836001811115620001195762000118620002b5565b5b0217905550426002819055508061014081815250505050505050506200036b565b6000815190506200014b81620002e9565b92915050565b600081519050620001628162000303565b92915050565b60008151905062000179816200031d565b92915050565b600081519050620001908162000337565b92915050565b600081519050620001a78162000351565b92915050565b60008060008060008060c08789031215620001cd57620001cc620002e4565b5b6000620001dd89828a016200013a565b9650506020620001f089828a0162000168565b95505060406200020389828a0162000151565b94505060606200021689828a0162000196565b93505060806200022989828a016200017f565b92505060a06200023c89828a0162000168565b9150509295509295509295565b6000620002568262000267565b9050919050565b6000819050919050565b600073ffffffffffffffffffffffffffffffffffffffff82169050919050565b6000819050919050565b600063ffffffff82169050919050565b600067ffffffffffffffff82169050919050565b7f4e487b7100000000000000000000000000000000000000000000000000000000600052602160045260246000fd5b600080fd5b620002f48162000249565b81146200030057600080fd5b50565b6200030e816200025d565b81146200031a57600080fd5b50565b620003288162000287565b81146200033457600080fd5b50565b620003428162000291565b81146200034e57600080fd5b50565b6200035c81620002a1565b81146200036857600080fd5b50565b60805160601c60a05160c05160601c60e0516101005160c01c6101205160e01c6101405161143b620003e7600039600081816107a1015261084d015260006106550152600061063201526000610611015260006105d50152600081816102b401526103b10152600081816102f10152610345015261143b6000f3fe6080604052600436106100a75760003560e01c8063473f1ddc11610064578063473f1ddc146101895780635f1b0fd8146101b45780636e04ff0d146101df57806391ad27b41461021d578063e55ae4e814610248578063fd6673f514610285576100a7565b806309bc33a7146100ac578063115cbaf5146100d75780631fe543e3146101025780632cfcc5391461012b5780634585e33b146101355780634622374e1461015e575b600080fd5b3480156100b857600080fd5b506100c16102b0565b6040516100ce9190611041565b60405180910390f35b3480156100e357600080fd5b506100ec6102d8565b6040516100f99190611026565b60405180910390f35b34801561010e57600080fd5b5061012960048036038101906101249190610e1a565b6102ef565b005b6101336103af565b005b34801561014157600080fd5b5061015c60048036038101906101579190610d2a565b61051e565b005b34801561016a57600080fd5b5061017361071d565b6040516101809190611041565b60405180910390f35b34801561019557600080fd5b5061019e610727565b6040516101ab9190610f5f565b60405180910390f35b3480156101c057600080fd5b506101c9610751565b6040516101d69190611041565b60405180910390f35b3480156101eb57600080fd5b5061020660048036038101906102019190610d77565b61075e565b604051610214929190610fa3565b60405180910390f35b34801561022957600080fd5b50610232610849565b60405161023f9190611041565b60405180910390f35b34801561025457600080fd5b5061026f600480360381019061026a9190610dc0565b610871565b60405161027c9190610f5f565b60405180910390f35b34801561029157600080fd5b5061029a6108b8565b6040516102a79190611041565b60405180910390f35b60007f0000000000000000000000000000000000000000000000000000000000000000905090565b6000600160149054906101000a900460ff16905090565b7f000000000000000000000000000000000000000000000000000000000000000073ffffffffffffffffffffffffffffffffffffffff163373ffffffffffffffffffffffffffffffffffffffff16146103a157337f00000000000000000000000000000000000000000000000000000000000000006040517f1cf993f4000000000000000000000000000000000000000000000000000000008152600401610398929190610f7a565b60405180910390fd5b6103ab82826108c4565b5050565b7f0000000000000000000000000000000000000000000000000000000000000000341015610409576040517fbd4e069500000000000000000000000000000000000000000000000000000000815260040160405180910390fd5b6000600181111561041d5761041c61131b565b5b600160149054906101000a900460ff16600181111561043f5761043e61131b565b5b14610476576040517f1425571c00000000000000000000000000000000000000000000000000000000815260040160405180910390fd5b6000339080600181540180825580915050600190039060005260206000200160009091909190916101000a81548173ffffffffffffffffffffffffffffffffffffffff021916908373ffffffffffffffffffffffffffffffffffffffff1602179055503373ffffffffffffffffffffffffffffffffffffffff167f0805e1d667bddb8a95f0f09880cf94f403fb596ce79928d9f29b74203ba284d460405160405180910390a2565b60006105386040518060200160405280600081525061075e565b509050806105a75747600080549050600160149054906101000a900460ff1660018111156105695761056861131b565b5b6040517f584327aa00000000000000000000000000000000000000000000000000000000815260040161059e9392919061105c565b60405180910390fd5b60018060146101000a81548160ff021916908360018111156105cc576105cb61131b565b5b021790555060007f000000000000000000000000000000000000000000000000000000000000000073ffffffffffffffffffffffffffffffffffffffff16635d3b1d307f00000000000000000000000000000000000000000000000000000000000000007f000000000000000000000000000000000000000000000000000000000000000060037f000000000000000000000000000000000000000000000000000000000000000060016040518663ffffffff1660e01b8152600401610696959493929190610fd3565b602060405180830381600087803b1580156106b057600080fd5b505af11580156106c4573d6000803e3d6000fd5b505050506040513d601f19601f820116820180604052508101906106e89190610ded565b9050807fcd6e45c8998311cab7e9d4385596cac867e20a0587194b954fa3a731c93ce78b60405160405180910390a250505050565b6000600254905090565b6000600160009054906101000a900473ffffffffffffffffffffffffffffffffffffffff16905090565b6000600361ffff16905090565b600060606000600160149054906101000a900460ff1660018111156107865761078561131b565b5b6000600181111561079a5761079961131b565b5b14905060007f0000000000000000000000000000000000000000000000000000000000000000600254426107ce919061113c565b1190506000806000805490501190506000804711905060008480156107f05750835b80156107f95750825b80156108025750815b9050806040518060400160405280600381526020017f3078300000000000000000000000000000000000000000000000000000000000815250965096505050505050915091565b60007f0000000000000000000000000000000000000000000000000000000000000000905090565b60008082815481106108865761088561134a565b5b9060005260206000200160009054906101000a900473ffffffffffffffffffffffffffffffffffffffff169050919050565b60008080549050905090565b60008080549050826000815181106108df576108de61134a565b5b60200260200101516108f1919061128c565b905060008082815481106109085761090761134a565b5b9060005260206000200160009054906101000a900473ffffffffffffffffffffffffffffffffffffffff16905080600160006101000a81548173ffffffffffffffffffffffffffffffffffffffff021916908373ffffffffffffffffffffffffffffffffffffffff1602179055506000600160146101000a81548160ff0219169083600181111561099c5761099b61131b565b5b0217905550600067ffffffffffffffff8111156109bc576109bb611379565b5b6040519080825280602002602001820160405280156109ea5781602001602082028036833780820191505090505b5060009080519060200190610a00929190610af5565b504260028190555060008173ffffffffffffffffffffffffffffffffffffffff1647604051610a2e90610f4a565b60006040518083038185875af1925050503d8060008114610a6b576040519150601f19603f3d011682016040523d82523d6000602084013e610a70565b606091505b5050905080610aab576040517fa1d04b3900000000000000000000000000000000000000000000000000000000815260040160405180910390fd5b8173ffffffffffffffffffffffffffffffffffffffff167f5b690ec4a06fe979403046eaeea5b3ce38524683c3001f662c8b5a829632f7df60405160405180910390a25050505050565b828054828255906000526020600020908101928215610b6e579160200282015b82811115610b6d5782518260006101000a81548173ffffffffffffffffffffffffffffffffffffffff021916908373ffffffffffffffffffffffffffffffffffffffff16021790555091602001919060010190610b15565b5b509050610b7b9190610b7f565b5090565b5b80821115610b98576000816000905550600101610b80565b5090565b6000610baf610baa846110b8565b611093565b90508083825260208201905082856020860282011115610bd257610bd16113b2565b5b60005b85811015610c025781610be88882610d00565b845260208401935060208301925050600181019050610bd5565b5050509392505050565b6000610c1f610c1a846110e4565b611093565b905082815260208101848484011115610c3b57610c3a6113b7565b5b610c46848285611219565b509392505050565b600082601f830112610c6357610c626113ad565b5b8135610c73848260208601610b9c565b91505092915050565b60008083601f840112610c9257610c916113ad565b5b8235905067ffffffffffffffff811115610caf57610cae6113a8565b5b602083019150836001820283011115610ccb57610cca6113b2565b5b9250929050565b600082601f830112610ce757610ce66113ad565b5b8135610cf7848260208601610c0c565b91505092915050565b600081359050610d0f816113ee565b92915050565b600081519050610d24816113ee565b92915050565b60008060208385031215610d4157610d406113c1565b5b600083013567ffffffffffffffff811115610d5f57610d5e6113bc565b5b610d6b85828601610c7c565b92509250509250929050565b600060208284031215610d8d57610d8c6113c1565b5b600082013567ffffffffffffffff811115610dab57610daa6113bc565b5b610db784828501610cd2565b91505092915050565b600060208284031215610dd657610dd56113c1565b5b6000610de484828501610d00565b91505092915050565b600060208284031215610e0357610e026113c1565b5b6000610e1184828501610d15565b91505092915050565b60008060408385031215610e3157610e306113c1565b5b6000610e3f85828601610d00565b925050602083013567ffffffffffffffff811115610e6057610e5f6113bc565b5b610e6c85828601610c4e565b9150509250929050565b610e7f81611170565b82525050565b610e8e81611182565b82525050565b610e9d8161118e565b82525050565b6000610eae82611115565b610eb88185611120565b9350610ec8818560208601611228565b610ed1816113c6565b840191505092915050565b610ee581611207565b82525050565b6000610ef8600083611131565b9150610f03826113d7565b600082019050919050565b610f17816111ab565b82525050565b610f26816111d9565b82525050565b610f35816111e3565b82525050565b610f44816111f3565b82525050565b6000610f5582610eeb565b9150819050919050565b6000602082019050610f746000830184610e76565b92915050565b6000604082019050610f8f6000830185610e76565b610f9c6020830184610e76565b9392505050565b6000604082019050610fb86000830185610e85565b8181036020830152610fca8184610ea3565b90509392505050565b600060a082019050610fe86000830188610e94565b610ff56020830187610f3b565b6110026040830186610f0e565b61100f6060830185610f2c565b61101c6080830184610f2c565b9695505050505050565b600060208201905061103b6000830184610edc565b92915050565b60006020820190506110566000830184610f1d565b92915050565b60006060820190506110716000830186610f1d565b61107e6020830185610f1d565b61108b6040830184610f1d565b949350505050565b600061109d6110ae565b90506110a9828261125b565b919050565b6000604051905090565b600067ffffffffffffffff8211156110d3576110d2611379565b5b602082029050602081019050919050565b600067ffffffffffffffff8211156110ff576110fe611379565b5b611108826113c6565b9050602081019050919050565b600081519050919050565b600082825260208201905092915050565b600081905092915050565b6000611147826111d9565b9150611152836111d9565b925082821015611165576111646112bd565b5b828203905092915050565b600061117b826111b9565b9050919050565b60008115159050919050565b6000819050919050565b60008190506111a6826113da565b919050565b600061ffff82169050919050565b600073ffffffffffffffffffffffffffffffffffffffff82169050919050565b6000819050919050565b600063ffffffff82169050919050565b600067ffffffffffffffff82169050919050565b600061121282611198565b9050919050565b82818337600083830152505050565b60005b8381101561124657808201518184015260208101905061122b565b83811115611255576000848401525b50505050565b611264826113c6565b810181811067ffffffffffffffff8211171561128357611282611379565b5b80604052505050565b6000611297826111d9565b91506112a2836111d9565b9250826112b2576112b16112ec565b5b828206905092915050565b7f4e487b7100000000000000000000000000000000000000000000000000000000600052601160045260246000fd5b7f4e487b7100000000000000000000000000000000000000000000000000000000600052601260045260246000fd5b7f4e487b7100000000000000000000000000000000000000000000000000000000600052602160045260246000fd5b7f4e487b7100000000000000000000000000000000000000000000000000000000600052603260045260246000fd5b7f4e487b7100000000000000000000000000000000000000000000000000000000600052604160045260246000fd5b600080fd5b600080fd5b600080fd5b600080fd5b600080fd5b600080fd5b6000601f19601f8301169050919050565b50565b600281106113eb576113ea61131b565b5b50565b6113f7816111d9565b811461140257600080fd5b5056fea2646970667358221220643b93b1c734a58a0483824e0fac645970710eb0ebff7aa23b371b729b19a5c864736f6c63430008070033",
  "linkReferences": {},
  "deployedLinkReferences": {}
}