{
  "address": "0xa92D40d9CB2b49ce80C5c2DE2E57C30a2fBf110e",
  "abi": [
    {
      "inputs": [
        {
          "internalType": "address",
          "name": "vrfCoordinatorV2",
          "type": "address"
        },
        {
          "internalType": "uint256",
          "name": "entranceFee",
          "type": "uint256"
        },
        {
          "internalType": "bytes32",
          "name": "gasLane",
          "type": "bytes32"
        },
        {
          "internalType": "uint64",
          "name": "subscriptionId",
          "type": "uint64"
        },
        {
          "internalType": "uint32",
          "name": "callbackGasLimit",
          "type": "uint32"
        },
        {
          "internalType": "uint256",
          "name": "interval",
          "type": "uint256"
        }
      ],
      "stateMutability": "nonpayable",
      "type": "constructor"
    },
    {
      "inputs": [
        {
          "internalType": "address",
          "name": "have",
          "type": "address"
        },
        {
          "internalType": "address",
          "name": "want",
          "type": "address"
        }
      ],
      "name": "OnlyCoordinatorCanFulfill",
      "type": "error"
    },
    {
      "inputs": [],
      "name": "Raffle__NotEnoughETHEntered",
      "type": "error"
    },
    {
      "inputs": [],
      "name": "Raffle__NotOpen",
      "type": "error"
    },
    {
      "inputs": [],
      "name": "Raffle__TransferFailed",
      "type": "error"
    },
    {
      "inputs": [
        {
          "internalType": "uint256",
          "name": "currentBalance",
          "type": "uint256"
        },
        {
          "internalType": "uint256",
          "name": "numPlayers",
          "type": "uint256"
        },
        {
          "internalType": "uint256",
          "name": "raffleState",
          "type": "uint256"
        }
      ],
      "name": "Raffle__UpkeepNotNeeded",
      "type": "error"
    },
    {
      "anonymous": false,
      "inputs": [
        {
          "indexed": true,
          "internalType": "address",
          "name": "player",
          "type": "address"
        }
      ],
      "name": "RaffleEnter",
      "type": "event"
    },
    {
      "anonymous": false,
      "inputs": [
        {
          "indexed": true,
          "internalType": "uint256",
          "name": "requestId",
          "type": "uint256"
        }
      ],
      "name": "RequestedRaffleWinner",
      "type": "event"
    },
    {
      "anonymous": false,
      "inputs": [
        {
          "indexed": true,
          "internalType": "address",
          "name": "winner",
          "type": "address"
        }
      ],
      "name": "WinnerPicked",
      "type": "event"
    },
    {
      "inputs": [
        {
          "internalType": "bytes",
          "name": "",
          "type": "bytes"
        }
      ],
      "name": "checkUpkeep",
      "outputs": [
        {
          "internalType": "bool",
          "name": "upkeepNeeded",
          "type": "bool"
        },
        {
          "internalType": "bytes",
          "name": "",
          "type": "bytes"
        }
      ],
      "stateMutability": "nonpayable",
      "type": "function"
    },
    {
      "inputs": [],
      "name": "enterRaffle",
      "outputs": [],
      "stateMutability": "payable",
      "type": "function"
    },
    {
      "inputs": [],
      "name": "getEntranceFee",
      "outputs": [
        {
          "internalType": "uint256",
          "name": "",
          "type": "uint256"
        }
      ],
      "stateMutability": "view",
      "type": "function"
    },
    {
      "inputs": [],
      "name": "getInterval",
      "outputs": [
        {
          "internalType": "uint256",
          "name": "",
          "type": "uint256"
        }
      ],
      "stateMutability": "view",
      "type": "function"
    },
    {
      "inputs": [],
      "name": "getLatestTimesTamp",
      "outputs": [
        {
          "internalType": "uint256",
          "name": "",
          "type": "uint256"
        }
      ],
      "stateMutability": "view",
      "type": "function"
    },
    {
      "inputs": [],
      "name": "getNumberOfPlayers",
      "outputs": [
        {
          "internalType": "uint256",
          "name": "",
          "type": "uint256"
        }
      ],
      "stateMutability": "view",
      "type": "function"
    },
    {
      "inputs": [
        {
          "internalType": "uint256",
          "name": "index",
          "type": "uint256"
        }
      ],
      "name": "getPlayer",
      "outputs": [
        {
          "internalType": "address",
          "name": "",
          "type": "address"
        }
      ],
      "stateMutability": "view",
      "type": "function"
    },
    {
      "inputs": [],
      "name": "getRaffleState",
      "outputs": [
        {
          "internalType": "enum Raffle.RaffleState",
          "name": "",
          "type": "uint8"
        }
      ],
      "stateMutability": "view",
      "type": "function"
    },
    {
      "inputs": [],
      "name": "getRecentWinner",
      "outputs": [
        {
          "internalType": "address",
          "name": "",
          "type": "address"
        }
      ],
      "stateMutability": "view",
      "type": "function"
    },
    {
      "inputs": [],
      "name": "getRequestConfirmations",
      "outputs": [
        {
          "internalType": "uint256",
          "name": "",
          "type": "uint256"
        }
      ],
      "stateMutability": "pure",
      "type": "function"
    },
    {
      "inputs": [
        {
          "internalType": "bytes",
          "name": "",
          "type": "bytes"
        }
      ],
      "name": "performUpkeep",
      "outputs": [],
      "stateMutability": "nonpayable",
      "type": "function"
    },
    {
      "inputs": [
        {
          "internalType": "uint256",
          "name": "requestId",
          "type": "uint256"
        },
        {
          "internalType": "uint256[]",
          "name": "randomWords",
          "type": "uint256[]"
        }
      ],
      "name": "rawFulfillRandomWords",
      "outputs": [],
      "stateMutability": "nonpayable",
      "type": "function"
    }
  ],
  "transactionHash": "0x22e7946e24938f267ec4d82ce573dcc2bf4f8dfe27edfe94d0b539f898c1793f",
  "args": [
    "0x271682DEB8C4E0901D1a1550aD2e64D568E69909",
    "10000000000000000",
    "0xd89b2bf150e3b9e13446986e571fb9cab24b13cea0a43ea20a6049a85cc807cc",
    "7032",
    "500000",
    "30"
  ],
  "numDeployments": 1,
  "solcInputHash": "a1ae59f21eec9281ae1b27875fdb2bca",
  "bytecode": "0x6101606040523480156200001257600080fd5b50604051620017e7380380620017e78339818101604052810190620000389190620001ad565b858073ffffffffffffffffffffffffffffffffffffffff1660808173ffffffffffffffffffffffffffffffffffffffff1660601b81525050508460a081815250508573ffffffffffffffffffffffffffffffffffffffff1660c08173ffffffffffffffffffffffffffffffffffffffff1660601b815250508360e081815250508267ffffffffffffffff166101008167ffffffffffffffff1660c01b815250508163ffffffff166101208163ffffffff1660e01b815250506000600160146101000a81548160ff02191690836001811115620001195762000118620002b5565b5b0217905550426002819055508061014081815250505050505050506200036b565b6000815190506200014b81620002e9565b92915050565b600081519050620001628162000303565b92915050565b60008151905062000179816200031d565b92915050565b600081519050620001908162000337565b92915050565b600081519050620001a78162000351565b92915050565b60008060008060008060c08789031215620001cd57620001cc620002e4565b5b6000620001dd89828a016200013a565b9650506020620001f089828a0162000168565b95505060406200020389828a0162000151565b94505060606200021689828a0162000196565b93505060806200022989828a016200017f565b92505060a06200023c89828a0162000168565b9150509295509295509295565b6000620002568262000267565b9050919050565b6000819050919050565b600073ffffffffffffffffffffffffffffffffffffffff82169050919050565b6000819050919050565b600063ffffffff82169050919050565b600067ffffffffffffffff82169050919050565b7f4e487b7100000000000000000000000000000000000000000000000000000000600052602160045260246000fd5b600080fd5b620002f48162000249565b81146200030057600080fd5b50565b6200030e816200025d565b81146200031a57600080fd5b50565b620003288162000287565b81146200033457600080fd5b50565b620003428162000291565b81146200034e57600080fd5b50565b6200035c81620002a1565b81146200036857600080fd5b50565b60805160601c60a05160c05160601c60e0516101005160c01c6101205160e01c61014051611400620003e7600039600081816107a10152610812015260006106550152600061063201526000610611015260006105d50152600081816102b401526103b10152600081816102f1015261034501526114006000f3fe6080604052600436106100a75760003560e01c8063473f1ddc11610064578063473f1ddc146101895780635f1b0fd8146101b45780636e04ff0d146101df57806391ad27b41461021d578063e55ae4e814610248578063fd6673f514610285576100a7565b806309bc33a7146100ac578063115cbaf5146100d75780631fe543e3146101025780632cfcc5391461012b5780634585e33b146101355780634622374e1461015e575b600080fd5b3480156100b857600080fd5b506100c16102b0565b6040516100ce9190611006565b60405180910390f35b3480156100e357600080fd5b506100ec6102d8565b6040516100f99190610feb565b60405180910390f35b34801561010e57600080fd5b5061012960048036038101906101249190610ddf565b6102ef565b005b6101336103af565b005b34801561014157600080fd5b5061015c60048036038101906101579190610cef565b61051e565b005b34801561016a57600080fd5b5061017361071d565b6040516101809190611006565b60405180910390f35b34801561019557600080fd5b5061019e610727565b6040516101ab9190610f24565b60405180910390f35b3480156101c057600080fd5b506101c9610751565b6040516101d69190611006565b60405180910390f35b3480156101eb57600080fd5b5061020660048036038101906102019190610d3c565b61075e565b604051610214929190610f68565b60405180910390f35b34801561022957600080fd5b5061023261080e565b60405161023f9190611006565b60405180910390f35b34801561025457600080fd5b5061026f600480360381019061026a9190610d85565b610836565b60405161027c9190610f24565b60405180910390f35b34801561029157600080fd5b5061029a61087d565b6040516102a79190611006565b60405180910390f35b60007f0000000000000000000000000000000000000000000000000000000000000000905090565b6000600160149054906101000a900460ff16905090565b7f000000000000000000000000000000000000000000000000000000000000000073ffffffffffffffffffffffffffffffffffffffff163373ffffffffffffffffffffffffffffffffffffffff16146103a157337f00000000000000000000000000000000000000000000000000000000000000006040517f1cf993f4000000000000000000000000000000000000000000000000000000008152600401610398929190610f3f565b60405180910390fd5b6103ab8282610889565b5050565b7f0000000000000000000000000000000000000000000000000000000000000000341015610409576040517fbd4e069500000000000000000000000000000000000000000000000000000000815260040160405180910390fd5b6000600181111561041d5761041c6112e0565b5b600160149054906101000a900460ff16600181111561043f5761043e6112e0565b5b14610476576040517f1425571c00000000000000000000000000000000000000000000000000000000815260040160405180910390fd5b6000339080600181540180825580915050600190039060005260206000200160009091909190916101000a81548173ffffffffffffffffffffffffffffffffffffffff021916908373ffffffffffffffffffffffffffffffffffffffff1602179055503373ffffffffffffffffffffffffffffffffffffffff167f0805e1d667bddb8a95f0f09880cf94f403fb596ce79928d9f29b74203ba284d460405160405180910390a2565b60006105386040518060200160405280600081525061075e565b509050806105a75747600080549050600160149054906101000a900460ff166001811115610569576105686112e0565b5b6040517f584327aa00000000000000000000000000000000000000000000000000000000815260040161059e93929190611021565b60405180910390fd5b60018060146101000a81548160ff021916908360018111156105cc576105cb6112e0565b5b021790555060007f000000000000000000000000000000000000000000000000000000000000000073ffffffffffffffffffffffffffffffffffffffff16635d3b1d307f00000000000000000000000000000000000000000000000000000000000000007f000000000000000000000000000000000000000000000000000000000000000060037f000000000000000000000000000000000000000000000000000000000000000060016040518663ffffffff1660e01b8152600401610696959493929190610f98565b602060405180830381600087803b1580156106b057600080fd5b505af11580156106c4573d6000803e3d6000fd5b505050506040513d601f19601f820116820180604052508101906106e89190610db2565b9050807fcd6e45c8998311cab7e9d4385596cac867e20a0587194b954fa3a731c93ce78b60405160405180910390a250505050565b6000600254905090565b6000600160009054906101000a900473ffffffffffffffffffffffffffffffffffffffff16905090565b6000600361ffff16905090565b600060606000600160149054906101000a900460ff166001811115610786576107856112e0565b5b6000600181111561079a576107996112e0565b5b14905060007f0000000000000000000000000000000000000000000000000000000000000000600254426107ce9190611101565b1190506000806000805490501190506000804711905060008480156107f05750835b80156107f95750825b80156108025750815b90505050505050915091565b60007f0000000000000000000000000000000000000000000000000000000000000000905090565b600080828154811061084b5761084a61130f565b5b9060005260206000200160009054906101000a900473ffffffffffffffffffffffffffffffffffffffff169050919050565b60008080549050905090565b60008080549050826000815181106108a4576108a361130f565b5b60200260200101516108b69190611251565b905060008082815481106108cd576108cc61130f565b5b9060005260206000200160009054906101000a900473ffffffffffffffffffffffffffffffffffffffff16905080600160006101000a81548173ffffffffffffffffffffffffffffffffffffffff021916908373ffffffffffffffffffffffffffffffffffffffff1602179055506000600160146101000a81548160ff02191690836001811115610961576109606112e0565b5b0217905550600067ffffffffffffffff8111156109815761098061133e565b5b6040519080825280602002602001820160405280156109af5781602001602082028036833780820191505090505b50600090805190602001906109c5929190610aba565b504260028190555060008173ffffffffffffffffffffffffffffffffffffffff16476040516109f390610f0f565b60006040518083038185875af1925050503d8060008114610a30576040519150601f19603f3d011682016040523d82523d6000602084013e610a35565b606091505b5050905080610a70576040517fa1d04b3900000000000000000000000000000000000000000000000000000000815260040160405180910390fd5b8173ffffffffffffffffffffffffffffffffffffffff167f5b690ec4a06fe979403046eaeea5b3ce38524683c3001f662c8b5a829632f7df60405160405180910390a25050505050565b828054828255906000526020600020908101928215610b33579160200282015b82811115610b325782518260006101000a81548173ffffffffffffffffffffffffffffffffffffffff021916908373ffffffffffffffffffffffffffffffffffffffff16021790555091602001919060010190610ada565b5b509050610b409190610b44565b5090565b5b80821115610b5d576000816000905550600101610b45565b5090565b6000610b74610b6f8461107d565b611058565b90508083825260208201905082856020860282011115610b9757610b96611377565b5b60005b85811015610bc75781610bad8882610cc5565b845260208401935060208301925050600181019050610b9a565b5050509392505050565b6000610be4610bdf846110a9565b611058565b905082815260208101848484011115610c0057610bff61137c565b5b610c0b8482856111de565b509392505050565b600082601f830112610c2857610c27611372565b5b8135610c38848260208601610b61565b91505092915050565b60008083601f840112610c5757610c56611372565b5b8235905067ffffffffffffffff811115610c7457610c7361136d565b5b602083019150836001820283011115610c9057610c8f611377565b5b9250929050565b600082601f830112610cac57610cab611372565b5b8135610cbc848260208601610bd1565b91505092915050565b600081359050610cd4816113b3565b92915050565b600081519050610ce9816113b3565b92915050565b60008060208385031215610d0657610d05611386565b5b600083013567ffffffffffffffff811115610d2457610d23611381565b5b610d3085828601610c41565b92509250509250929050565b600060208284031215610d5257610d51611386565b5b600082013567ffffffffffffffff811115610d7057610d6f611381565b5b610d7c84828501610c97565b91505092915050565b600060208284031215610d9b57610d9a611386565b5b6000610da984828501610cc5565b91505092915050565b600060208284031215610dc857610dc7611386565b5b6000610dd684828501610cda565b91505092915050565b60008060408385031215610df657610df5611386565b5b6000610e0485828601610cc5565b925050602083013567ffffffffffffffff811115610e2557610e24611381565b5b610e3185828601610c13565b9150509250929050565b610e4481611135565b82525050565b610e5381611147565b82525050565b610e6281611153565b82525050565b6000610e73826110da565b610e7d81856110e5565b9350610e8d8185602086016111ed565b610e968161138b565b840191505092915050565b610eaa816111cc565b82525050565b6000610ebd6000836110f6565b9150610ec88261139c565b600082019050919050565b610edc81611170565b82525050565b610eeb8161119e565b82525050565b610efa816111a8565b82525050565b610f09816111b8565b82525050565b6000610f1a82610eb0565b9150819050919050565b6000602082019050610f396000830184610e3b565b92915050565b6000604082019050610f546000830185610e3b565b610f616020830184610e3b565b9392505050565b6000604082019050610f7d6000830185610e4a565b8181036020830152610f8f8184610e68565b90509392505050565b600060a082019050610fad6000830188610e59565b610fba6020830187610f00565b610fc76040830186610ed3565b610fd46060830185610ef1565b610fe16080830184610ef1565b9695505050505050565b60006020820190506110006000830184610ea1565b92915050565b600060208201905061101b6000830184610ee2565b92915050565b60006060820190506110366000830186610ee2565b6110436020830185610ee2565b6110506040830184610ee2565b949350505050565b6000611062611073565b905061106e8282611220565b919050565b6000604051905090565b600067ffffffffffffffff8211156110985761109761133e565b5b602082029050602081019050919050565b600067ffffffffffffffff8211156110c4576110c361133e565b5b6110cd8261138b565b9050602081019050919050565b600081519050919050565b600082825260208201905092915050565b600081905092915050565b600061110c8261119e565b91506111178361119e565b92508282101561112a57611129611282565b5b828203905092915050565b60006111408261117e565b9050919050565b60008115159050919050565b6000819050919050565b600081905061116b8261139f565b919050565b600061ffff82169050919050565b600073ffffffffffffffffffffffffffffffffffffffff82169050919050565b6000819050919050565b600063ffffffff82169050919050565b600067ffffffffffffffff82169050919050565b60006111d78261115d565b9050919050565b82818337600083830152505050565b60005b8381101561120b5780820151818401526020810190506111f0565b8381111561121a576000848401525b50505050565b6112298261138b565b810181811067ffffffffffffffff821117156112485761124761133e565b5b80604052505050565b600061125c8261119e565b91506112678361119e565b925082611277576112766112b1565b5b828206905092915050565b7f4e487b7100000000000000000000000000000000000000000000000000000000600052601160045260246000fd5b7f4e487b7100000000000000000000000000000000000000000000000000000000600052601260045260246000fd5b7f4e487b7100000000000000000000000000000000000000000000000000000000600052602160045260246000fd5b7f4e487b7100000000000000000000000000000000000000000000000000000000600052603260045260246000fd5b7f4e487b7100000000000000000000000000000000000000000000000000000000600052604160045260246000fd5b600080fd5b600080fd5b600080fd5b600080fd5b600080fd5b600080fd5b6000601f19601f8301169050919050565b50565b600281106113b0576113af6112e0565b5b50565b6113bc8161119e565b81146113c757600080fd5b5056fea26469706673582212207cd64a79c3a04e6786ede72f3a7e636c63f6aa95eb4bf260a59ee2072b87b32864736f6c63430008070033",
  "devdoc": {
    "author": "Agustin Rodriguez",
    "details": "This implements Chainlink VRF v2 and Chainlink Keepers",
    "kind": "dev",
    "methods": {
      "checkUpkeep(bytes)": {
        "details": "This is the function that the ChainLink Keeper nodes call they look for the `upkeepNeeded` to return true The following should be true in order to return true: 1.Our time interval should have passed 2. The lottery should have at least 1 player, and have some ETH 3. Our subscription is funded with LINK 4. The lottery should be in an \"open\" state"
      }
    },
    "title": "A sample Raffle Contract ",
    "version": 1
  },
  "userdoc": {
    "kind": "user",
    "methods": {},
    "notice": "This contract is for creating an untamperable decentralized smart contract ",
    "version": 1
  },
  "storageLayout": {
    "storage": [
      {
        "astId": 871,
        "contract": "contracts/Raffle.sol:Raffle",
        "label": "s_players",
        "offset": 0,
        "slot": "0",
        "type": "t_array(t_address_payable)dyn_storage"
      },
      {
        "astId": 888,
        "contract": "contracts/Raffle.sol:Raffle",
        "label": "s_recentWinner",
        "offset": 0,
        "slot": "1",
        "type": "t_address"
      },
      {
        "astId": 891,
        "contract": "contracts/Raffle.sol:Raffle",
        "label": "s_raffleState",
        "offset": 20,
        "slot": "1",
        "type": "t_enum(RaffleState)866"
      },
      {
        "astId": 893,
        "contract": "contracts/Raffle.sol:Raffle",
        "label": "s_lastTimeStamp",
        "offset": 0,
        "slot": "2",
        "type": "t_uint256"
      }
    ],
    "types": {
      "t_address": {
        "encoding": "inplace",
        "label": "address",
        "numberOfBytes": "20"
      },
      "t_address_payable": {
        "encoding": "inplace",
        "label": "address payable",
        "numberOfBytes": "20"
      },
      "t_array(t_address_payable)dyn_storage": {
        "base": "t_address_payable",
        "encoding": "dynamic_array",
        "label": "address payable[]",
        "numberOfBytes": "32"
      },
      "t_enum(RaffleState)866": {
        "encoding": "inplace",
        "label": "enum Raffle.RaffleState",
        "numberOfBytes": "1"
      },
      "t_uint256": {
        "encoding": "inplace",
        "label": "uint256",
        "numberOfBytes": "32"
      }
    }
  }
}